{
  "_format": "hh-sol-artifact-1",
  "contractName": "EasyBet",
  "sourceName": "contracts/EasyBet.sol",
  "abi": [
    {
      "inputs": [
        {
          "internalType": "address",
          "name": "_bet_token_address",
          "type": "address"
        }
      ],
      "stateMutability": "nonpayable",
      "type": "constructor"
    },
    {
      "inputs": [
        {
          "internalType": "address",
          "name": "sender",
          "type": "address"
        },
        {
          "internalType": "uint256",
          "name": "tokenId",
          "type": "uint256"
        },
        {
          "internalType": "address",
          "name": "owner",
          "type": "address"
        }
      ],
      "name": "ERC721IncorrectOwner",
      "type": "error"
    },
    {
      "inputs": [
        {
          "internalType": "address",
          "name": "operator",
          "type": "address"
        },
        {
          "internalType": "uint256",
          "name": "tokenId",
          "type": "uint256"
        }
      ],
      "name": "ERC721InsufficientApproval",
      "type": "error"
    },
    {
      "inputs": [
        {
          "internalType": "address",
          "name": "approver",
          "type": "address"
        }
      ],
      "name": "ERC721InvalidApprover",
      "type": "error"
    },
    {
      "inputs": [
        {
          "internalType": "address",
          "name": "operator",
          "type": "address"
        }
      ],
      "name": "ERC721InvalidOperator",
      "type": "error"
    },
    {
      "inputs": [
        {
          "internalType": "address",
          "name": "owner",
          "type": "address"
        }
      ],
      "name": "ERC721InvalidOwner",
      "type": "error"
    },
    {
      "inputs": [
        {
          "internalType": "address",
          "name": "receiver",
          "type": "address"
        }
      ],
      "name": "ERC721InvalidReceiver",
      "type": "error"
    },
    {
      "inputs": [
        {
          "internalType": "address",
          "name": "sender",
          "type": "address"
        }
      ],
      "name": "ERC721InvalidSender",
      "type": "error"
    },
    {
      "inputs": [
        {
          "internalType": "uint256",
          "name": "tokenId",
          "type": "uint256"
        }
      ],
      "name": "ERC721NonexistentToken",
      "type": "error"
    },
    {
      "inputs": [
        {
          "internalType": "address",
          "name": "owner",
          "type": "address"
        }
      ],
      "name": "OwnableInvalidOwner",
      "type": "error"
    },
    {
      "inputs": [
        {
          "internalType": "address",
          "name": "account",
          "type": "address"
        }
      ],
      "name": "OwnableUnauthorizedAccount",
      "type": "error"
    },
    {
      "anonymous": false,
      "inputs": [
        {
          "indexed": false,
          "internalType": "uint256",
          "name": "activityId",
          "type": "uint256"
        },
        {
          "indexed": false,
          "internalType": "string",
          "name": "name",
          "type": "string"
        },
        {
          "indexed": false,
          "internalType": "uint256",
          "name": "start_time",
          "type": "uint256"
        },
        {
          "indexed": false,
          "internalType": "uint256",
          "name": "end_time",
          "type": "uint256"
        },
        {
          "indexed": false,
          "internalType": "uint256",
          "name": "total_pool",
          "type": "uint256"
        }
      ],
      "name": "ActivityCreated",
      "type": "event"
    },
    {
      "anonymous": false,
      "inputs": [
        {
          "indexed": false,
          "internalType": "uint256",
          "name": "activityId",
          "type": "uint256"
        },
        {
          "indexed": false,
          "internalType": "uint256",
          "name": "win_choice",
          "type": "uint256"
        }
      ],
      "name": "ActivitySettled",
      "type": "event"
    },
    {
      "anonymous": false,
      "inputs": [
        {
          "indexed": true,
          "internalType": "address",
          "name": "owner",
          "type": "address"
        },
        {
          "indexed": true,
          "internalType": "address",
          "name": "approved",
          "type": "address"
        },
        {
          "indexed": true,
          "internalType": "uint256",
          "name": "tokenId",
          "type": "uint256"
        }
      ],
      "name": "Approval",
      "type": "event"
    },
    {
      "anonymous": false,
      "inputs": [
        {
          "indexed": true,
          "internalType": "address",
          "name": "owner",
          "type": "address"
        },
        {
          "indexed": true,
          "internalType": "address",
          "name": "operator",
          "type": "address"
        },
        {
          "indexed": false,
          "internalType": "bool",
          "name": "approved",
          "type": "bool"
        }
      ],
      "name": "ApprovalForAll",
      "type": "event"
    },
    {
      "anonymous": false,
      "inputs": [
        {
          "indexed": false,
          "internalType": "uint256",
          "name": "tokenId",
          "type": "uint256"
        },
        {
          "indexed": false,
          "internalType": "uint256",
          "name": "price",
          "type": "uint256"
        },
        {
          "indexed": false,
          "internalType": "address",
          "name": "owner",
          "type": "address"
        }
      ],
      "name": "BetPlaced",
      "type": "event"
    },
    {
      "anonymous": false,
      "inputs": [
        {
          "indexed": false,
          "internalType": "uint256",
          "name": "activityId",
          "type": "uint256"
        },
        {
          "indexed": false,
          "internalType": "uint256",
          "name": "order_count",
          "type": "uint256"
        }
      ],
      "name": "OrderUpdated",
      "type": "event"
    },
    {
      "anonymous": false,
      "inputs": [
        {
          "indexed": true,
          "internalType": "address",
          "name": "previousOwner",
          "type": "address"
        },
        {
          "indexed": true,
          "internalType": "address",
          "name": "newOwner",
          "type": "address"
        }
      ],
      "name": "OwnershipTransferred",
      "type": "event"
    },
    {
      "anonymous": false,
      "inputs": [
        {
          "indexed": false,
          "internalType": "uint256",
          "name": "tokenId",
          "type": "uint256"
        },
        {
          "indexed": false,
          "internalType": "address",
          "name": "owner",
          "type": "address"
        },
        {
          "indexed": false,
          "internalType": "uint256",
          "name": "amount",
          "type": "uint256"
        }
      ],
      "name": "PrizeRedeemed",
      "type": "event"
    },
    {
      "anonymous": false,
      "inputs": [
        {
          "indexed": false,
          "internalType": "uint256",
          "name": "tokenId",
          "type": "uint256"
        },
        {
          "indexed": false,
          "internalType": "address",
          "name": "seller",
          "type": "address"
        }
      ],
      "name": "TicketDelisted",
      "type": "event"
    },
    {
      "anonymous": false,
      "inputs": [
        {
          "indexed": false,
          "internalType": "uint256",
          "name": "tokenId",
          "type": "uint256"
        },
        {
          "indexed": false,
          "internalType": "uint256",
          "name": "price",
          "type": "uint256"
        },
        {
          "indexed": false,
          "internalType": "address",
          "name": "seller",
          "type": "address"
        },
        {
          "indexed": false,
          "internalType": "uint256",
          "name": "activityId",
          "type": "uint256"
        },
        {
          "indexed": false,
          "internalType": "uint256",
          "name": "choice",
          "type": "uint256"
        }
      ],
      "name": "TicketListed",
      "type": "event"
    },
    {
      "anonymous": false,
      "inputs": [
        {
          "indexed": false,
          "internalType": "uint256",
          "name": "tokenId",
          "type": "uint256"
        },
        {
          "indexed": false,
          "internalType": "uint256",
          "name": "price",
          "type": "uint256"
        },
        {
          "indexed": false,
          "internalType": "address",
          "name": "buyer",
          "type": "address"
        },
        {
          "indexed": false,
          "internalType": "address",
          "name": "seller",
          "type": "address"
        }
      ],
      "name": "TicketSold",
      "type": "event"
    },
    {
      "anonymous": false,
      "inputs": [
        {
          "indexed": true,
          "internalType": "address",
          "name": "from",
          "type": "address"
        },
        {
          "indexed": true,
          "internalType": "address",
          "name": "to",
          "type": "address"
        },
        {
          "indexed": true,
          "internalType": "uint256",
          "name": "tokenId",
          "type": "uint256"
        }
      ],
      "name": "Transfer",
      "type": "event"
    },
    {
      "inputs": [
        {
          "internalType": "uint256",
          "name": "",
          "type": "uint256"
        }
      ],
      "name": "activities",
      "outputs": [
        {
          "internalType": "address",
          "name": "owner",
          "type": "address"
        },
        {
          "internalType": "string",
          "name": "name",
          "type": "string"
        },
        {
          "internalType": "uint256",
          "name": "start_time",
          "type": "uint256"
        },
        {
          "internalType": "uint256",
          "name": "end_time",
          "type": "uint256"
        },
        {
          "internalType": "uint256",
          "name": "total_pool",
          "type": "uint256"
        },
        {
          "internalType": "uint256",
          "name": "win_choice",
          "type": "uint256"
        },
        {
          "internalType": "bool",
          "name": "is_settled",
          "type": "bool"
        },
        {
          "internalType": "uint256",
          "name": "ticket_count",
          "type": "uint256"
        }
      ],
      "stateMutability": "view",
      "type": "function"
    },
    {
      "inputs": [
        {
          "internalType": "address",
          "name": "to",
          "type": "address"
        },
        {
          "internalType": "uint256",
          "name": "tokenId",
          "type": "uint256"
        }
      ],
      "name": "approve",
      "outputs": [],
      "stateMutability": "nonpayable",
      "type": "function"
    },
    {
      "inputs": [
        {
          "internalType": "address",
          "name": "owner",
          "type": "address"
        }
      ],
      "name": "balanceOf",
      "outputs": [
        {
          "internalType": "uint256",
          "name": "",
          "type": "uint256"
        }
      ],
      "stateMutability": "view",
      "type": "function"
    },
    {
      "inputs": [],
      "name": "bet_token",
      "outputs": [
        {
          "internalType": "contract IERC20",
          "name": "",
          "type": "address"
        }
      ],
      "stateMutability": "view",
      "type": "function"
    },
    {
      "inputs": [
        {
          "internalType": "uint256",
          "name": "activityId",
          "type": "uint256"
        },
        {
          "internalType": "uint256",
          "name": "choice",
          "type": "uint256"
        },
        {
          "internalType": "uint256",
          "name": "amount",
          "type": "uint256"
        }
      ],
      "name": "buy_ticket",
      "outputs": [
        {
          "internalType": "uint256",
          "name": "",
          "type": "uint256"
        }
      ],
      "stateMutability": "nonpayable",
      "type": "function"
    },
    {
      "inputs": [
        {
          "internalType": "uint256",
          "name": "tokenId",
          "type": "uint256"
        }
      ],
      "name": "buy_ticket_listed",
      "outputs": [],
      "stateMutability": "nonpayable",
      "type": "function"
    },
    {
      "inputs": [
        {
          "internalType": "string",
          "name": "name",
          "type": "string"
        },
        {
          "internalType": "string[]",
          "name": "choices",
          "type": "string[]"
        },
        {
          "internalType": "uint256",
          "name": "start_time",
          "type": "uint256"
        },
        {
          "internalType": "uint256",
          "name": "end_time",
          "type": "uint256"
        },
        {
          "internalType": "uint256",
          "name": "total_pool",
          "type": "uint256"
        }
      ],
      "name": "create_activity",
      "outputs": [],
      "stateMutability": "nonpayable",
      "type": "function"
    },
    {
      "inputs": [
        {
          "internalType": "uint256",
          "name": "tokenId",
          "type": "uint256"
        }
      ],
      "name": "delist_ticket",
      "outputs": [],
      "stateMutability": "nonpayable",
      "type": "function"
    },
    {
      "inputs": [
        {
          "internalType": "uint256",
          "name": "tokenId",
          "type": "uint256"
        }
      ],
      "name": "getApproved",
      "outputs": [
        {
          "internalType": "address",
          "name": "",
          "type": "address"
        }
      ],
      "stateMutability": "view",
      "type": "function"
    },
    {
      "inputs": [
        {
          "internalType": "uint256",
          "name": "activityId",
          "type": "uint256"
        }
      ],
      "name": "get_activity_info",
      "outputs": [
        {
          "components": [
            {
              "internalType": "string[]",
              "name": "choices",
              "type": "string[]"
            },
            {
              "internalType": "string",
              "name": "name",
              "type": "string"
            },
            {
              "internalType": "uint256",
              "name": "start_time",
              "type": "uint256"
            },
            {
              "internalType": "uint256",
              "name": "end_time",
              "type": "uint256"
            },
            {
              "internalType": "uint256",
              "name": "total_pool",
              "type": "uint256"
            },
            {
              "internalType": "uint256",
              "name": "win_choice",
              "type": "uint256"
            },
            {
              "internalType": "bool",
              "name": "is_settled",
              "type": "bool"
            },
            {
              "internalType": "uint256",
              "name": "ticket_count",
              "type": "uint256"
            },
            {
              "internalType": "uint256[]",
              "name": "choice_amounts",
              "type": "uint256[]"
            }
          ],
          "internalType": "struct IEasyBet.ActivityInfo",
          "name": "",
          "type": "tuple"
        }
      ],
      "stateMutability": "view",
      "type": "function"
    },
    {
      "inputs": [
        {
          "internalType": "uint256",
          "name": "activityId",
          "type": "uint256"
        }
      ],
      "name": "get_activity_status",
      "outputs": [
        {
          "internalType": "string",
          "name": "",
          "type": "string"
        }
      ],
      "stateMutability": "view",
      "type": "function"
    },
    {
      "inputs": [],
      "name": "get_all_activityId",
      "outputs": [
        {
          "internalType": "uint256[]",
          "name": "",
          "type": "uint256[]"
        }
      ],
      "stateMutability": "view",
      "type": "function"
    },
    {
      "inputs": [
        {
          "internalType": "uint256",
          "name": "activityId",
          "type": "uint256"
        }
      ],
      "name": "get_orderbook",
      "outputs": [
        {
          "internalType": "uint256[]",
          "name": "tokenIds",
          "type": "uint256[]"
        },
        {
          "internalType": "uint256[]",
          "name": "prices",
          "type": "uint256[]"
        },
        {
          "internalType": "address[]",
          "name": "sellers",
          "type": "address[]"
        },
        {
          "internalType": "uint256[]",
          "name": "activityIds",
          "type": "uint256[]"
        },
        {
          "internalType": "uint256[]",
          "name": "choices",
          "type": "uint256[]"
        },
        {
          "internalType": "uint256[]",
          "name": "timestamps",
          "type": "uint256[]"
        }
      ],
      "stateMutability": "view",
      "type": "function"
    },
    {
      "inputs": [
        {
          "internalType": "uint256",
          "name": "activityId",
          "type": "uint256"
        },
        {
          "internalType": "uint256",
          "name": "choice",
          "type": "uint256"
        }
      ],
      "name": "get_orderbook_price_level",
      "outputs": [
        {
          "internalType": "uint256[]",
          "name": "prices",
          "type": "uint256[]"
        },
        {
          "internalType": "uint256[]",
          "name": "counts",
          "type": "uint256[]"
        }
      ],
      "stateMutability": "view",
      "type": "function"
    },
    {
      "inputs": [],
      "name": "helloworld",
      "outputs": [
        {
          "internalType": "string",
          "name": "",
          "type": "string"
        }
      ],
      "stateMutability": "pure",
      "type": "function"
    },
    {
      "inputs": [
        {
          "internalType": "address",
          "name": "owner",
          "type": "address"
        },
        {
          "internalType": "address",
          "name": "operator",
          "type": "address"
        }
      ],
      "name": "isApprovedForAll",
      "outputs": [
        {
          "internalType": "bool",
          "name": "",
          "type": "bool"
        }
      ],
      "stateMutability": "view",
      "type": "function"
    },
    {
      "inputs": [
        {
          "internalType": "uint256",
          "name": "tokenId",
          "type": "uint256"
        },
        {
          "internalType": "uint256",
          "name": "price",
          "type": "uint256"
        }
      ],
      "name": "list_ticket",
      "outputs": [],
      "stateMutability": "nonpayable",
      "type": "function"
    },
    {
      "inputs": [],
      "name": "name",
      "outputs": [
        {
          "internalType": "string",
          "name": "",
          "type": "string"
        }
      ],
      "stateMutability": "view",
      "type": "function"
    },
    {
      "inputs": [],
      "name": "next_activityId",
      "outputs": [
        {
          "internalType": "uint256",
          "name": "",
          "type": "uint256"
        }
      ],
      "stateMutability": "view",
      "type": "function"
    },
    {
      "inputs": [],
      "name": "next_tokenId",
      "outputs": [
        {
          "internalType": "uint256",
          "name": "",
          "type": "uint256"
        }
      ],
      "stateMutability": "view",
      "type": "function"
    },
    {
      "inputs": [],
      "name": "owner",
      "outputs": [
        {
          "internalType": "address",
          "name": "",
          "type": "address"
        }
      ],
      "stateMutability": "view",
      "type": "function"
    },
    {
      "inputs": [
        {
          "internalType": "uint256",
          "name": "tokenId",
          "type": "uint256"
        }
      ],
      "name": "ownerOf",
      "outputs": [
        {
          "internalType": "address",
          "name": "",
          "type": "address"
        }
      ],
      "stateMutability": "view",
      "type": "function"
    },
    {
      "inputs": [
        {
          "internalType": "uint256",
          "name": "tokenId",
          "type": "uint256"
        }
      ],
      "name": "redeem_prize",
      "outputs": [],
      "stateMutability": "nonpayable",
      "type": "function"
    },
    {
      "inputs": [],
      "name": "renounceOwnership",
      "outputs": [],
      "stateMutability": "nonpayable",
      "type": "function"
    },
    {
      "inputs": [
        {
          "internalType": "address",
          "name": "from",
          "type": "address"
        },
        {
          "internalType": "address",
          "name": "to",
          "type": "address"
        },
        {
          "internalType": "uint256",
          "name": "tokenId",
          "type": "uint256"
        }
      ],
      "name": "safeTransferFrom",
      "outputs": [],
      "stateMutability": "nonpayable",
      "type": "function"
    },
    {
      "inputs": [
        {
          "internalType": "address",
          "name": "from",
          "type": "address"
        },
        {
          "internalType": "address",
          "name": "to",
          "type": "address"
        },
        {
          "internalType": "uint256",
          "name": "tokenId",
          "type": "uint256"
        },
        {
          "internalType": "bytes",
          "name": "data",
          "type": "bytes"
        }
      ],
      "name": "safeTransferFrom",
      "outputs": [],
      "stateMutability": "nonpayable",
      "type": "function"
    },
    {
      "inputs": [
        {
          "internalType": "address",
          "name": "operator",
          "type": "address"
        },
        {
          "internalType": "bool",
          "name": "approved",
          "type": "bool"
        }
      ],
      "name": "setApprovalForAll",
      "outputs": [],
      "stateMutability": "nonpayable",
      "type": "function"
    },
    {
      "inputs": [
        {
          "internalType": "uint256",
          "name": "activityId",
          "type": "uint256"
        },
        {
          "internalType": "uint256",
          "name": "win_choice",
          "type": "uint256"
        }
      ],
      "name": "settle_activity",
      "outputs": [],
      "stateMutability": "nonpayable",
      "type": "function"
    },
    {
      "inputs": [
        {
          "internalType": "bytes4",
          "name": "interfaceId",
          "type": "bytes4"
        }
      ],
      "name": "supportsInterface",
      "outputs": [
        {
          "internalType": "bool",
          "name": "",
          "type": "bool"
        }
      ],
      "stateMutability": "view",
      "type": "function"
    },
    {
      "inputs": [],
      "name": "symbol",
      "outputs": [
        {
          "internalType": "string",
          "name": "",
          "type": "string"
        }
      ],
      "stateMutability": "view",
      "type": "function"
    },
    {
      "inputs": [
        {
          "internalType": "uint256",
          "name": "",
          "type": "uint256"
        }
      ],
      "name": "tickets",
      "outputs": [
        {
          "internalType": "uint256",
          "name": "activityId",
          "type": "uint256"
        },
        {
          "internalType": "uint256",
          "name": "choice",
          "type": "uint256"
        },
        {
          "internalType": "uint256",
          "name": "buy_price",
          "type": "uint256"
        },
        {
          "internalType": "uint256",
          "name": "list_price",
          "type": "uint256"
        },
        {
          "internalType": "bool",
          "name": "is_redeemed",
          "type": "bool"
        },
        {
          "internalType": "uint256",
          "name": "order_index",
          "type": "uint256"
        }
      ],
      "stateMutability": "view",
      "type": "function"
    },
    {
      "inputs": [
        {
          "internalType": "uint256",
          "name": "tokenId",
          "type": "uint256"
        }
      ],
      "name": "tokenURI",
      "outputs": [
        {
          "internalType": "string",
          "name": "",
          "type": "string"
        }
      ],
      "stateMutability": "view",
      "type": "function"
    },
    {
      "inputs": [
        {
          "internalType": "address",
          "name": "from",
          "type": "address"
        },
        {
          "internalType": "address",
          "name": "to",
          "type": "address"
        },
        {
          "internalType": "uint256",
          "name": "tokenId",
          "type": "uint256"
        }
      ],
      "name": "transferFrom",
      "outputs": [],
      "stateMutability": "nonpayable",
      "type": "function"
    },
    {
      "inputs": [
        {
          "internalType": "address",
          "name": "newOwner",
          "type": "address"
        }
      ],
      "name": "transferOwnership",
      "outputs": [],
      "stateMutability": "nonpayable",
      "type": "function"
    },
    {
      "inputs": [
        {
          "internalType": "address",
          "name": "",
          "type": "address"
        }
      ],
      "name": "user_balances",
      "outputs": [
        {
          "internalType": "uint256",
          "name": "",
          "type": "uint256"
        }
      ],
      "stateMutability": "view",
      "type": "function"
    },
    {
      "inputs": [],
      "name": "withdraw_balance",
      "outputs": [],
      "stateMutability": "nonpayable",
      "type": "function"
    }
  ],
  "bytecode": "0x60806040526001600b556001600c553480156200001b57600080fd5b50604051620042eb380380620042eb8339810160408190526200003e9162000157565b336040518060400160405280600d81526020016c11585cde50995d151a58dad95d609a1b8152506040518060400160405280600381526020016211509560ea1b81525081600090816200009291906200022e565b506001620000a182826200022e565b5050506001600160a01b038116620000d357604051631e4fbdf760e01b81526000600482015260240160405180910390fd5b620000de8162000105565b50600d80546001600160a01b0319166001600160a01b0392909216919091179055620002fa565b600680546001600160a01b038381166001600160a01b0319831681179093556040519116919082907f8be0079c531659141344cd1fd0a4f28419497f9722a3daafe3b4186f6b6457e090600090a35050565b6000602082840312156200016a57600080fd5b81516001600160a01b03811681146200018257600080fd5b9392505050565b634e487b7160e01b600052604160045260246000fd5b600181811c90821680620001b457607f821691505b602082108103620001d557634e487b7160e01b600052602260045260246000fd5b50919050565b601f8211156200022957600081815260208120601f850160051c81016020861015620002045750805b601f850160051c820191505b81811015620002255782815560010162000210565b5050505b505050565b81516001600160401b038111156200024a576200024a62000189565b62000262816200025b84546200019f565b84620001db565b602080601f8311600181146200029a5760008415620002815750858301515b600019600386901b1c1916600185901b17855562000225565b600085815260208120601f198616915b82811015620002cb57888601518255948401946001909101908401620002aa565b5085821015620002ea5787850151600019600388901b60f8161c191681555b5050505050600190811b01905550565b613fe1806200030a6000396000f3fe608060405234801561001057600080fd5b506004361061021c5760003560e01c806370a0823111610125578063be7996aa116100ad578063e076471d1161007c578063e076471d14610549578063e985e9c51461055c578063eaeed15d1461056f578063ec1fb5ac14610582578063f2fde38b1461058b57600080fd5b8063be7996aa146104ed578063c80c4a7114610500578063c87b56dd14610521578063c922324d1461053457600080fd5b806395d89b41116100f457806395d89b4114610487578063a22cb4651461048f578063b2d030c5146104a2578063b3f45736146104b5578063b88d4fde146104da57600080fd5b806370a0823114610448578063715018a61461045b57806374f08bca146104635780638da5cb5b1461047657600080fd5b80632df4e21e116101a857806350b447121161017757806350b447121461038c57806357b37128146104045780635e7a7d8f1461040d5780636352211e146104155780636edb46041461042857600080fd5b80632df4e21e146103115780632f2f48591461033f5780633cd9520f1461036657806342842e0e1461037957600080fd5b80630c101886116101ef5780630c1018861461029e5780630d1657e8146102b15780630ebb267c146102d85780631bf8c21d146102eb57806323b872dd146102fe57600080fd5b806301ffc9a71461022157806306fdde0314610249578063081812fc1461025e578063095ea7b314610289575b600080fd5b61023461022f366004613457565b61059e565b60405190151581526020015b60405180910390f35b6102516105f0565b60405161024091906134c4565b61027161026c3660046134d7565b610682565b6040516001600160a01b039091168152602001610240565b61029c61029736600461350c565b6106ab565b005b61029c6102ac3660046134d7565b6106ba565b6102c46102bf3660046134d7565b6108a1565b604051610240989796959493929190613536565b61029c6102e6366004613698565b61097a565b6102516102f93660046134d7565b610c8c565b61029c61030c36600461378a565b610da6565b61033161031f3660046137c6565b60096020526000908152604090205481565b604051908152602001610240565b60408051808201909152600b81526a1a195b1b1bc81ddbdc9b1960aa1b6020820152610251565b61029c6103743660046137e1565b610e31565b61029c61038736600461378a565b611070565b6103d561039a3660046134d7565b600860205260009081526040902080546001820154600283015460038401546004850154600590950154939492939192909160ff9091169086565b6040805196875260208701959095529385019290925260608401521515608083015260a082015260c001610240565b610331600b5481565b61029c611090565b6102716104233660046134d7565b6111bd565b61043b6104363660046134d7565b6111c8565b6040516102409190613893565b6103316104563660046137c6565b611465565b61029c6114ad565b610331610471366004613941565b6114c1565b6006546001600160a01b0316610271565b610251611810565b61029c61049d36600461397b565b61181f565b61029c6104b03660046134d7565b61182a565b6104c86104c33660046134d7565b6119b3565b604051610240969594939291906139b2565b61029c6104e8366004613a61565b611d6f565b61029c6104fb3660046137e1565b611d86565b61051361050e3660046137e1565b611fe9565b604051610240929190613adc565b61025161052f3660046134d7565b6121d9565b61053c61224d565b6040516102409190613b0a565b600d54610271906001600160a01b031681565b61023461056a366004613b1d565b6122ea565b61029c61057d3660046134d7565b612318565b610331600c5481565b61029c6105993660046137c6565b612672565b60006001600160e01b031982166380ac58cd60e01b14806105cf57506001600160e01b03198216635b5e139f60e01b145b806105ea57506301ffc9a760e01b6001600160e01b03198316145b92915050565b6060600080546105ff90613b50565b80601f016020809104026020016040519081016040528092919081815260200182805461062b90613b50565b80156106785780601f1061064d57610100808354040283529160200191610678565b820191906000526020600020905b81548152906001019060200180831161065b57829003601f168201915b5050505050905090565b600061068d826126ad565b506000828152600460205260409020546001600160a01b03166105ea565b6106b68282336126e6565b5050565b6000818152600860205260409020600381015461071e5760405162461bcd60e51b815260206004820152601e60248201527f5469636b657473206973206e6f74206c697374656420666f722073616c65000060448201526064015b60405180910390fd5b6000610729836111bd565b6003830154835460058501546000828152600760205260409020939450919290919061075a90600b0182600a6126f3565b600060038601819055600586015560028501839055600d546040516323b872dd60e01b81523360048201526001600160a01b03868116602483015260448201869052909116906323b872dd906064016020604051808303816000875af11580156107c8573d6000803e3d6000fd5b505050506040513d601f19601f820116820180604052508101906107ec9190613b84565b6108085760405162461bcd60e51b815260040161071590613ba1565b610813843388610da6565b604080518781526020810185905233818301526001600160a01b038616606082015290517f44f19a44b8c509adc281ec35927694f6d25e501d0de1764890ab0637b8dcda489181900360800190a1600082815260076020908152604091829020600b0154825185815291820152600080516020613f66833981519152910160405180910390a1505050505050565b600760205260009081526040902080546002820180546001600160a01b0390921692916108cd90613b50565b80601f01602080910402602001604051908101604052809291908181526020018280546108f990613b50565b80156109465780601f1061091b57610100808354040283529160200191610946565b820191906000526020600020905b81548152906001019060200180831161092957829003601f168201915b50505060038401546004850154600586015460068701546007880154600890980154969793969295509093509160ff169088565b6109826128d2565b8183106109e45760405162461bcd60e51b815260206004820152602a60248201527f5468652073746172742074696d65206d757374206265206265666f72652074686044820152696520656e642074696d6560b01b6064820152608401610715565b600284511015610a475760405162461bcd60e51b815260206004820152602860248201527f546865206e756d626572206f662063686f69636573206d757374206265206174604482015267103632b0b9ba101960c11b6064820152608401610715565b60008111610aa55760405162461bcd60e51b815260206004820152602560248201527f54686520746f74616c20706f6f6c206d75737420626520677265617465722074604482015264068616e20360dc1b6064820152608401610715565b600b80549081906000610ab783613bfc565b9091555050600081815260076020908152604090912080546001600160a01b0319163317815586519091610af2916001840191890190613336565b5060028101610b018882613c63565b50600381018590556004810184905560058101839055600019600682015560078101805460ff191690556000600882018190555b8651811015610b705760008181526009830160209081526040808320839055600a850190915281205580610b6881613bfc565b915050610b35565b50600d546040516323b872dd60e01b8152336004820152306024820152604481018590526001600160a01b03909116906323b872dd906064016020604051808303816000875af1158015610bc8573d6000803e3d6000fd5b505050506040513d601f19601f82011682018060405250810190610bec9190613b84565b610c445760405162461bcd60e51b815260206004820152602360248201527f416374697669747920706f6f6c20746f6b656e207472616e73666572206661696044820152621b195960ea1b6064820152608401610715565b7f7249f8fbe83f85ae58f64b11be9c308bead21116268d306089287fdc2a4c21908288878787604051610c7b959493929190613d22565b60405180910390a150505050505050565b6060600082118015610c9f5750600b5482105b610cbb5760405162461bcd60e51b815260040161071590613d58565b60008281526007602052604090206003810154421015610d075750506040805180820190915260148152731058dd1a5d9a5d1e481b9bdd081cdd185c9d195960621b6020820152919050565b600781015460ff161515600103610d4657505060408051808201909152601081526f1058dd1a5d9a5d1e481cd95d1d1b195960821b6020820152919050565b8060040154421015610d8057505060408051808201909152601081526f4163746976697479206f6e676f696e6760801b6020820152919050565b604051806060016040528060268152602001613f86602691399392505050565b50919050565b6001600160a01b038216610dd057604051633250574960e11b815260006004820152602401610715565b6000610ddd8383336128ff565b9050836001600160a01b0316816001600160a01b031614610e2b576040516364283d7b60e01b81526001600160a01b0380861660048301526024820184905282166044820152606401610715565b50505050565b33610e3b836111bd565b6001600160a01b031614610eac5760405162461bcd60e51b815260206004820152603260248201527f4f6e6c7920746865207469636b6574206f776e65722063616e206c69737420746044820152716865207469636b657420666f722073616c6560701b6064820152608401610715565b60008111610f0d5760405162461bcd60e51b815260206004820152602860248201527f546865206c697374696e67207072696365206d75737420626520677265617465604482015267072207468616e20360c41b6064820152608401610715565b6000828152600860209081526040808320805484526007909252909120600382015415610f82576005820154610f4990600b830190600a6126f3565b604080518581523360208201527fc116abad2a02ba3ce14050336137b8c63fa9fb38efd9381b7b81f7c93223aba3910160405180910390a15b600382018390556040805160c08101825285815260208101859052339181019190915282546060820152600183015460808201524260a0820152610fcb600b830182600a6129f8565b6005840155610fda30866106ab565b825460018401546040805188815260208101889052338183015260608101939093526080830191909152517fee26aa83151b07c5e4c11d23dae1de881718d5317c3e853891e6077ff1a5751c9181900360a00190a18254600081815260076020908152604091829020600b0154825193845290830152600080516020613f66833981519152910160405180910390a15050505050565b61108b83838360405180602001604052806000815250611d6f565b505050565b33600090815260096020526040902054806110e65760405162461bcd60e51b81526020600482015260166024820152754e6f2062616c616e636520746f20776974686472617760501b6044820152606401610715565b3360008181526009602052604080822091909155600d54905163a9059cbb60e01b81526004810192909252602482018390526001600160a01b03169063a9059cbb906044016020604051808303816000875af115801561114a573d6000803e3d6000fd5b505050506040513d601f19601f8201168201806040525081019061116e9190613b84565b6111ba5760405162461bcd60e51b815260206004820152601760248201527f546f6b656e207769746864726177616c206661696c65640000000000000000006044820152606401610715565b50565b60006105ea826126ad565b6111d061338c565b6000821180156111e15750600b5482105b6111fd5760405162461bcd60e51b815260040161071590613d58565b600082815260076020526040812060018101549091906001600160401b0381111561122a5761122a613590565b604051908082528060200260200182016040528015611253578160200160208202803683370190505b50905060005b60018301548110156112a7576000818152600a84016020526040902054825183908390811061128a5761128a613d8f565b60209081029190910101528061129f81613bfc565b915050611259565b506112b061338c565b8260020180546112bf90613b50565b80601f01602080910402602001604051908101604052809291908181526020018280546112eb90613b50565b80156113385780601f1061130d57610100808354040283529160200191611338565b820191906000526020600020905b81548152906001019060200180831161131b57829003601f168201915b505050506020808401929092525060018401805460408051828502810185019091528181529260009084015b8282101561141057838290600052602060002001805461138390613b50565b80601f01602080910402602001604051908101604052809291908181526020018280546113af90613b50565b80156113fc5780601f106113d1576101008083540402835291602001916113fc565b820191906000526020600020905b8154815290600101906020018083116113df57829003601f168201915b505050505081526020019060010190611364565b50505090825250600383015460408201526004830154606082015260058301546080820152600683015460a0820152600783015460ff16151560c082015260089092015460e083015261010082015292915050565b60006001600160a01b038216611491576040516322718ad960e21b815260006004820152602401610715565b506001600160a01b031660009081526003602052604090205490565b6114b56128d2565b6114bf6000612c8f565b565b600080841180156114d35750600b5484105b6114ef5760405162461bcd60e51b815260040161071590613d58565b600082116115495760405162461bcd60e51b815260206004820152602160248201527f54686520616d6f756e74206d7573742062652067726561746572207468616e206044820152600360fc1b6064820152608401610715565b6000848152600760205260409020600301544210156115aa5760405162461bcd60e51b815260206004820152601c60248201527f416374697669747920686173206e6f74207374617274656420796574000000006044820152606401610715565b600084815260076020526040902060040154421061160a5760405162461bcd60e51b815260206004820152601a60248201527f41637469766974792068617320616c726561647920656e6465640000000000006044820152606401610715565b60008481526007602052604090206001810154841061165c5760405162461bcd60e51b815260206004820152600e60248201526d496e76616c69642063686f69636560901b6044820152606401610715565b600c8054908190600061166e83613bfc565b90915550506000818152600860208190526040822088815560018101889055600281018790556003810183905560048101805460ff1916905560058101839055908401805491926116be83613bfc565b9091555050600086815260098401602052604081208054916116df83613bfc565b90915550506000868152600a8401602052604081208054879290611704908490613da5565b925050819055508483600501600082825461171f9190613da5565b9091555050600d546040516323b872dd60e01b8152336004820152306024820152604481018790526001600160a01b03909116906323b872dd906064016020604051808303816000875af115801561177b573d6000803e3d6000fd5b505050506040513d601f19601f8201168201806040525081019061179f9190613b84565b6117bb5760405162461bcd60e51b815260040161071590613ba1565b6117c53383612ce1565b6040805183815260208101879052338183015290517fcab2b69c9bd52c70281e758caba2ed7bf9140474a8c3e81ceafa1eb0b303a22b9181900360600190a1509150505b9392505050565b6060600180546105ff90613b50565b6106b6338383612cfb565b33611834826111bd565b6001600160a01b03161461189e5760405162461bcd60e51b815260206004820152602b60248201527f4f6e6c7920746865207469636b6574206f776e65722063616e2064656c69737460448201526a081d1a19481d1a58dad95d60aa1b6064820152608401610715565b600081815260086020526040902060038101546118fd5760405162461bcd60e51b815260206004820152601d60248201527f5469636b6574206973206e6f74206c697374656420666f722073616c650000006044820152606401610715565b80546000818152600760205260409020600583015461192290600b830190600a6126f3565b6000600384018190556005840181905561193c90856106ab565b604080518581523360208201527fc116abad2a02ba3ce14050336137b8c63fa9fb38efd9381b7b81f7c93223aba3910160405180910390a1600082815260076020908152604091829020600b0154825185815291820152600080516020613f6683398151915291015b60405180910390a150505050565b6060806060806060806000871180156119cd5750600b5487105b6119e95760405162461bcd60e51b815260040161071590613d58565b6000878152600760205260409020600b018054806001600160401b03811115611a1457611a14613590565b604051908082528060200260200182016040528015611a3d578160200160208202803683370190505b509750806001600160401b03811115611a5857611a58613590565b604051908082528060200260200182016040528015611a81578160200160208202803683370190505b509650806001600160401b03811115611a9c57611a9c613590565b604051908082528060200260200182016040528015611ac5578160200160208202803683370190505b509550806001600160401b03811115611ae057611ae0613590565b604051908082528060200260200182016040528015611b09578160200160208202803683370190505b509450806001600160401b03811115611b2457611b24613590565b604051908082528060200260200182016040528015611b4d578160200160208202803683370190505b509350806001600160401b03811115611b6857611b68613590565b604051908082528060200260200182016040528015611b91578160200160208202803683370190505b50925060005b81811015611d6357828181548110611bb157611bb1613d8f565b906000526020600020906006020160000154898281518110611bd557611bd5613d8f565b602002602001018181525050828181548110611bf357611bf3613d8f565b906000526020600020906006020160010154888281518110611c1757611c17613d8f565b602002602001018181525050828181548110611c3557611c35613d8f565b906000526020600020906006020160020160009054906101000a90046001600160a01b0316878281518110611c6c57611c6c613d8f565b60200260200101906001600160a01b031690816001600160a01b031681525050828181548110611c9e57611c9e613d8f565b906000526020600020906006020160030154868281518110611cc257611cc2613d8f565b602002602001018181525050828181548110611ce057611ce0613d8f565b906000526020600020906006020160040154858281518110611d0457611d04613d8f565b602002602001018181525050828181548110611d2257611d22613d8f565b906000526020600020906006020160050154848281518110611d4657611d46613d8f565b602090810291909101015280611d5b81613bfc565b915050611b97565b50505091939550919395565b611d7a848484610da6565b610e2b84848484612d9a565b611d8e6128d2565b6000828152600760205260409020546001600160a01b03163314611e0c5760405162461bcd60e51b815260206004820152602f60248201527f4f6e6c7920746865206163746976697479206f776e65722063616e207365747460448201526e6c652074686520616374697669747960881b6064820152608401610715565b6000828152600760208190526040909120015460ff1615611e795760405162461bcd60e51b815260206004820152602160248201527f41637469766974792068617320616c7265616479206265656e20736574746c656044820152601960fa1b6064820152608401610715565b600082118015611e8a5750600b5482105b611ea65760405162461bcd60e51b815260040161071590613d58565b6000828152600760205260409020600401544211611f065760405162461bcd60e51b815260206004820152601a60248201527f416374697669747920686173206e6f7420656e646564207965740000000000006044820152606401610715565b600082815260076020526040902060018101548210611f605760405162461bcd60e51b8152602060048201526016602482015275496e76616c69642077696e6e696e672063686f69636560501b6044820152606401610715565b611f6e600b8201600a612ec3565b6040805184815260006020820152600080516020613f66833981519152910160405180910390a16006810182905560078101805460ff1916600117905560408051848152602081018490527f2f1ac68a6a1323487e0501db62eccc16f4547064eec5f16536911063cd59b40f910160405180910390a1505050565b606080600084118015611ffd5750600b5484105b6120195760405162461bcd60e51b815260040161071590613d58565b6000848152600760205260408082209051632917f8c560e11b8152600b9091016004820181905260248201869052919073__$2ee3c19f78beb325359a7ecf92b243ba50$__9063522ff18a90604401600060405180830381865af4158015612085573d6000803e3d6000fd5b505050506040513d6000823e601f3d908101601f191682016040526120ad9190810190613db8565b8051909150806001600160401b038111156120ca576120ca613590565b6040519080825280602002602001820160405280156120f3578160200160208202803683370190505b509450806001600160401b0381111561210e5761210e613590565b604051908082528060200260200182016040528015612137578160200160208202803683370190505b50935060005b818110156121ce5782818151811061215757612157613d8f565b60200260200101516000015186828151811061217557612175613d8f565b60200260200101818152505082818151811061219357612193613d8f565b6020026020010151602001518582815181106121b1576121b1613d8f565b6020908102919091010152806121c681613bfc565b91505061213d565b505050509250929050565b60606121e4826126ad565b5060006121fc60408051602081019091526000815290565b9050600081511161221c5760405180602001604052806000815250611809565b8061222684612f80565b604051602001612237929190613e6d565b6040516020818303038152906040529392505050565b606060006001600b546122609190613e9c565b6001600160401b0381111561227757612277613590565b6040519080825280602002602001820160405280156122a0578160200160208202803683370190505b50905060015b600b54811015610da05780826122bd600183613e9c565b815181106122cd576122cd613d8f565b6020908102919091010152806122e281613bfc565b9150506122a6565b6001600160a01b03918216600090815260056020908152604080832093909416825291909152205460ff1690565b33612322826111bd565b6001600160a01b03161461238b5760405162461bcd60e51b815260206004820152602a60248201527f4f6e6c7920746865207469636b6574206f776e65722063616e2072656465656d60448201526920746865207072697a6560b01b6064820152608401610715565b6000818152600860205260409020600481015460ff16156123fd5760405162461bcd60e51b815260206004820152602660248201527f5469636b6574207072697a652068617320616c7265616479206265656e2072656044820152651919595b595960d21b6064820152608401610715565b805460009081526007602081905260409091209081015460ff1615156001146124725760405162461bcd60e51b815260206004820152602160248201527f416374697669747920686173206e6f74206265656e20736574746c65642079656044820152601d60fa1b6064820152608401610715565b80600601548260010154146124d95760405162461bcd60e51b815260206004820152602760248201527f5469636b65742063686f696365206973206e6f74207468652077696e6e696e676044820152662063686f69636560c81b6064820152608401610715565b600681015460009081526009820160205260409020546125545760405162461bcd60e51b815260206004820152603060248201527f4e6f207469636b65747320776572652070757263686173656420666f7220746860448201526f652077696e6e696e672063686f69636560801b6064820152608401610715565b60068101546000908152600a820160205260409020546125c65760405162461bcd60e51b815260206004820152602760248201527f4e6f20616d6f756e742077617320626574206f6e207468652077696e6e696e676044820152662063686f69636560c81b6064820152608401610715565b60028201546006820154600090815260098301602052604081205460058401549192916125f39190613eaf565b6125fd9190613ed1565b60048401805460ff1916600117905533600090815260096020526040812080549293508392909190612630908490613da5565b9091555050604080518581523360208201529081018290527f495ed389d846e004f0abe1329ccb9d5144a22b672f4ffd266635ca10c5801882906060016119a5565b61267a6128d2565b6001600160a01b0381166126a457604051631e4fbdf760e01b815260006004820152602401610715565b6111ba81612c8f565b6000818152600260205260408120546001600160a01b0316806105ea57604051637e27328960e01b815260048101849052602401610715565b61108b8383836001613012565b825482106127395760405162461bcd60e51b8152602060048201526013602482015272092dcecc2d8d2c840dee4c8cae440d2dcc8caf606b1b6044820152606401610715565b600081600085858154811061275057612750613d8f565b600091825260208083206006909202909101548352820192909252604001902055815b835461278190600190613e9c565b8110156128775783612794826001613da5565b815481106127a4576127a4613d8f565b90600052602060002090600602018482815481106127c4576127c4613d8f565b60009182526020822083546006909202019081556001808401549082015560028084015490820180546001600160a01b0319166001600160a01b03909216919091179055600380840154908201556004808401549082015560059283015492019190915584548291849187908490811061284057612840613d8f565b906000526020600020906006020160000154815260200190815260200160002081905550808061286f90613bfc565b915050612773565b508280548061288857612888613ee8565b600082815260208120600660001990930192830201818155600181018290556002810180546001600160a01b03191690556003810182905560048101829055600501559055505050565b6006546001600160a01b031633146114bf5760405163118cdaa760e01b8152336004820152602401610715565b6000828152600260205260408120546001600160a01b039081169083161561292c5761292c818486613118565b6001600160a01b0381161561296a57612949600085600080613012565b6001600160a01b038116600090815260036020526040902080546000190190555b6001600160a01b03851615612999576001600160a01b0385166000908152600360205260409020805460010190555b60008481526002602052604080822080546001600160a01b0319166001600160a01b0389811691821790925591518793918516917fddf252ad1be2c89b69c2b068fc378daa952ba7f163c4a11628f55a4df523b3ef91a4949350505050565b82546000908103612a7957508254600180820185556000858152602080822086516006909502019384558501519183019190915560408401516002830180546001600160a01b0319166001600160a01b03909216919091179055606084015160038301556080840151600483015560a0840151600590920191909155611809565b83546000905b80821015612aec5760006002612a958385613da5565b612a9f9190613eaf565b90508560200151878281548110612ab857612ab8613d8f565b9060005260206000209060060201600101541015612ae257612adb816001613da5565b9250612ae6565b8091505b50612a7f565b85546001908101808855600088815291612b0591613e9c565b90505b82811115612bff5786612b1c600183613e9c565b81548110612b2c57612b2c613d8f565b9060005260206000209060060201878281548110612b4c57612b4c613d8f565b60009182526020822083546006909202019081556001808401549082015560028084015490820180546001600160a01b0319166001600160a01b0390921691909117905560038084015490820155600480840154908201556005928301549201919091558754829187918a9084908110612bc857612bc8613d8f565b9060005260206000209060060201600001548152602001908152602001600020819055508080612bf790613efe565b915050612b08565b5084868381548110612c1357612c13613d8f565b600091825260208083208451600693909302019182558381015160018301556040808501516002840180546001600160a01b0319166001600160a01b03909216919091179055606085015160038401556080850151600484015560a0909401516005909201919091558751825286905220829055509050611809565b600680546001600160a01b038381166001600160a01b0319831681179093556040519116919082907f8be0079c531659141344cd1fd0a4f28419497f9722a3daafe3b4186f6b6457e090600090a35050565b6106b682826040518060200160405280600081525061317c565b6001600160a01b038216612d2d57604051630b61174360e31b81526001600160a01b0383166004820152602401610715565b6001600160a01b03838116600081815260056020908152604080832094871680845294825291829020805460ff191686151590811790915591519182527f17307eab39ab6107e8899845ad3d59bd9653f200f220920489ca2b5937696c31910160405180910390a3505050565b6001600160a01b0383163b15610e2b57604051630a85bd0160e11b81526001600160a01b0384169063150b7a0290612ddc903390889087908790600401613f15565b6020604051808303816000875af1925050508015612e17575060408051601f3d908101601f19168201909252612e1491810190613f48565b60015b612e80573d808015612e45576040519150601f19603f3d011682016040523d82523d6000602084013e612e4a565b606091505b508051600003612e7857604051633250574960e11b81526001600160a01b0385166004820152602401610715565b805181602001fd5b6001600160e01b03198116630a85bd0160e11b14612ebc57604051633250574960e11b81526001600160a01b0385166004820152602401610715565b5050505050565b60005b8254811015612f1d576000826000858481548110612ee657612ee6613d8f565b9060005260206000209060060201600001548152602001908152602001600020819055508080612f1590613bfc565b915050612ec6565b505b8154156106b65781805480612f3657612f36613ee8565b600082815260208120600660001990930192830201818155600181018290556002810180546001600160a01b03191690556003810182905560048101829055600501559055612f1f565b60606000612f8d83613193565b60010190506000816001600160401b03811115612fac57612fac613590565b6040519080825280601f01601f191660200182016040528015612fd6576020820181803683370190505b5090508181016020015b600019016f181899199a1a9b1b9c1cb0b131b232b360811b600a86061a8153600a8504945084612fe057509392505050565b808061302657506001600160a01b03821615155b156130e8576000613036846126ad565b90506001600160a01b038316158015906130625750826001600160a01b0316816001600160a01b031614155b8015613075575061307381846122ea565b155b1561309e5760405163a9fbf51f60e01b81526001600160a01b0384166004820152602401610715565b81156130e65783856001600160a01b0316826001600160a01b03167f8c5be1e5ebec7d5bd14f71427d1e84f3dd0314c0f7b2291e5b200ac8c7c3b92560405160405180910390a45b505b5050600090815260046020526040902080546001600160a01b0319166001600160a01b0392909216919091179055565b61312383838361326b565b61108b576001600160a01b03831661315157604051637e27328960e01b815260048101829052602401610715565b60405163177e802f60e01b81526001600160a01b038316600482015260248101829052604401610715565b61318683836132d1565b61108b6000848484612d9a565b60008072184f03e93ff9f4daa797ed6e38ed64bf6a1f0160401b83106131d25772184f03e93ff9f4daa797ed6e38ed64bf6a1f0160401b830492506040015b6d04ee2d6d415b85acef810000000083106131fe576d04ee2d6d415b85acef8100000000830492506020015b662386f26fc10000831061321c57662386f26fc10000830492506010015b6305f5e1008310613234576305f5e100830492506008015b612710831061324857612710830492506004015b6064831061325a576064830492506002015b600a83106105ea5760010192915050565b60006001600160a01b038316158015906132c95750826001600160a01b0316846001600160a01b031614806132a557506132a584846122ea565b806132c957506000828152600460205260409020546001600160a01b038481169116145b949350505050565b6001600160a01b0382166132fb57604051633250574960e11b815260006004820152602401610715565b6000613309838360006128ff565b90506001600160a01b0381161561108b576040516339e3563760e11b815260006004820152602401610715565b82805482825590600052602060002090810192821561337c579160200282015b8281111561337c578251829061336c9082613c63565b5091602001919060010190613356565b506133889291506133da565b5090565b60405180610120016040528060608152602001606081526020016000815260200160008152602001600081526020016000815260200160001515815260200160008152602001606081525090565b808211156133885760006133ee82826133f7565b506001016133da565b50805461340390613b50565b6000825580601f10613413575050565b601f0160209004906000526020600020908101906111ba91905b80821115613388576000815560010161342d565b6001600160e01b0319811681146111ba57600080fd5b60006020828403121561346957600080fd5b813561180981613441565b60005b8381101561348f578181015183820152602001613477565b50506000910152565b600081518084526134b0816020860160208601613474565b601f01601f19169290920160200192915050565b6020815260006118096020830184613498565b6000602082840312156134e957600080fd5b5035919050565b80356001600160a01b038116811461350757600080fd5b919050565b6000806040838503121561351f57600080fd5b613528836134f0565b946020939093013593505050565b6001600160a01b03891681526101006020820181905260009061355b8382018b613498565b604084019990995250506060810195909552608085019390935260a0840191909152151560c083015260e09091015292915050565b634e487b7160e01b600052604160045260246000fd5b604080519081016001600160401b03811182821017156135c8576135c8613590565b60405290565b604051601f8201601f191681016001600160401b03811182821017156135f6576135f6613590565b604052919050565b60006001600160401b0383111561361757613617613590565b61362a601f8401601f19166020016135ce565b905082815283838301111561363e57600080fd5b828260208301376000602084830101529392505050565b600082601f83011261366657600080fd5b611809838335602085016135fe565b60006001600160401b0382111561368e5761368e613590565b5060051b60200190565b600080600080600060a086880312156136b057600080fd5b85356001600160401b03808211156136c757600080fd5b6136d389838a01613655565b96506020915081880135818111156136ea57600080fd5b8801601f81018a136136fb57600080fd5b803561370e61370982613675565b6135ce565b81815260059190911b8201840190848101908c83111561372d57600080fd5b8584015b83811015613765578035868111156137495760008081fd5b6137578f8983890101613655565b845250918601918601613731565b50999c999b505050506040880135976060810135976080909101359650945050505050565b60008060006060848603121561379f57600080fd5b6137a8846134f0565b92506137b6602085016134f0565b9150604084013590509250925092565b6000602082840312156137d857600080fd5b611809826134f0565b600080604083850312156137f457600080fd5b50508035926020909101359150565b600081518084526020808501808196508360051b8101915082860160005b8581101561384b578284038952613839848351613498565b98850198935090840190600101613821565b5091979650505050505050565b600081518084526020808501945080840160005b838110156138885781518752958201959082019060010161386c565b509495945050505050565b60208152600082516101208060208501526138b2610140850183613803565b91506020850151601f19808685030160408701526138d08483613498565b93506040870151606087015260608701516080870152608087015160a087015260a087015160c087015260c0870151915061390f60e087018315159052565b60e0870151610100878101919091528701518685039091018387015290506139378382613858565b9695505050505050565b60008060006060848603121561395657600080fd5b505081359360208301359350604090920135919050565b80151581146111ba57600080fd5b6000806040838503121561398e57600080fd5b613997836134f0565b915060208301356139a78161396d565b809150509250929050565b60c0815260006139c560c0830189613858565b6020838203818501526139d8828a613858565b84810360408601528851808252828a0193509082019060005b81811015613a165784516001600160a01b0316835293830193918301916001016139f1565b50508481036060860152613a2a8189613858565b925050508281036080840152613a408186613858565b905082810360a0840152613a548185613858565b9998505050505050505050565b60008060008060808587031215613a7757600080fd5b613a80856134f0565b9350613a8e602086016134f0565b92506040850135915060608501356001600160401b03811115613ab057600080fd5b8501601f81018713613ac157600080fd5b613ad0878235602084016135fe565b91505092959194509250565b604081526000613aef6040830185613858565b8281036020840152613b018185613858565b95945050505050565b6020815260006118096020830184613858565b60008060408385031215613b3057600080fd5b613b39836134f0565b9150613b47602084016134f0565b90509250929050565b600181811c90821680613b6457607f821691505b602082108103610da057634e487b7160e01b600052602260045260246000fd5b600060208284031215613b9657600080fd5b81516118098161396d565b60208082526025908201527f5469636b657420707572636861736520746f6b656e207472616e736665722066604082015264185a5b195960da1b606082015260800190565b634e487b7160e01b600052601160045260246000fd5b600060018201613c0e57613c0e613be6565b5060010190565b601f82111561108b57600081815260208120601f850160051c81016020861015613c3c5750805b601f850160051c820191505b81811015613c5b57828155600101613c48565b505050505050565b81516001600160401b03811115613c7c57613c7c613590565b613c9081613c8a8454613b50565b84613c15565b602080601f831160018114613cc55760008415613cad5750858301515b600019600386901b1c1916600185901b178555613c5b565b600085815260208120601f198616915b82811015613cf457888601518255948401946001909101908401613cd5565b5085821015613d125787850151600019600388901b60f8161c191681555b5050505050600190811b01905550565b85815260a060208201526000613d3b60a0830187613498565b604083019590955250606081019290925260809091015292915050565b6020808252601a908201527f416374697669747920494420646f6573206e6f74206578697374000000000000604082015260600190565b634e487b7160e01b600052603260045260246000fd5b808201808211156105ea576105ea613be6565b60006020808385031215613dcb57600080fd5b82516001600160401b03811115613de157600080fd5b8301601f81018513613df257600080fd5b8051613e0061370982613675565b81815260069190911b82018301908381019087831115613e1f57600080fd5b928401925b82841015613e625760408489031215613e3d5760008081fd5b613e456135a6565b845181528585015186820152825260409093019290840190613e24565b979650505050505050565b60008351613e7f818460208801613474565b835190830190613e93818360208801613474565b01949350505050565b818103818111156105ea576105ea613be6565b600082613ecc57634e487b7160e01b600052601260045260246000fd5b500490565b80820281158282048414176105ea576105ea613be6565b634e487b7160e01b600052603160045260246000fd5b600081613f0d57613f0d613be6565b506000190190565b6001600160a01b038581168252841660208201526040810183905260806060820181905260009061393790830184613498565b600060208284031215613f5a57600080fd5b81516118098161344156fe8e73a807b83fde44e6e12224a9b4fade736ffe96ab8d511abd64e9a1b4e8c0ca416374697669747920656e6465642c2077616974696e6720666f7220736574746c656d656e74a2646970667358221220d5864348bfbb19fa98193ba54d3fc536f6e9aef475db318c22ebbbc046e0c2e464736f6c63430008140033",
  "linkReferences": {
    "contracts/libraries/OrderbookLib.sol": {
      "OrderbookLib": [
        {
          "length": 20,
          "start": 9045
        }
      ]
    }
  },
  "deployedLinkReferences": {
    "contracts/libraries/OrderbookLib.sol": {
      "OrderbookLib": [
        {
          "length": 20,
          "start": 8267
        }
      ]
    }
  }
}