{
  "_format": "hh-sol-artifact-1",
  "contractName": "MyERC20",
  "sourceName": "contracts/MyERC20.sol",
  "abi": [
    {
      "inputs": [],
      "stateMutability": "nonpayable",
      "type": "constructor"
    },
    {
      "inputs": [
        {
          "internalType": "address",
          "name": "spender",
          "type": "address"
        },
        {
          "internalType": "uint256",
          "name": "allowance",
          "type": "uint256"
        },
        {
          "internalType": "uint256",
          "name": "needed",
          "type": "uint256"
        }
      ],
      "name": "ERC20InsufficientAllowance",
      "type": "error"
    },
    {
      "inputs": [
        {
          "internalType": "address",
          "name": "sender",
          "type": "address"
        },
        {
          "internalType": "uint256",
          "name": "balance",
          "type": "uint256"
        },
        {
          "internalType": "uint256",
          "name": "needed",
          "type": "uint256"
        }
      ],
      "name": "ERC20InsufficientBalance",
      "type": "error"
    },
    {
      "inputs": [
        {
          "internalType": "address",
          "name": "approver",
          "type": "address"
        }
      ],
      "name": "ERC20InvalidApprover",
      "type": "error"
    },
    {
      "inputs": [
        {
          "internalType": "address",
          "name": "receiver",
          "type": "address"
        }
      ],
      "name": "ERC20InvalidReceiver",
      "type": "error"
    },
    {
      "inputs": [
        {
          "internalType": "address",
          "name": "sender",
          "type": "address"
        }
      ],
      "name": "ERC20InvalidSender",
      "type": "error"
    },
    {
      "inputs": [
        {
          "internalType": "address",
          "name": "spender",
          "type": "address"
        }
      ],
      "name": "ERC20InvalidSpender",
      "type": "error"
    },
    {
      "inputs": [
        {
          "internalType": "address",
          "name": "owner",
          "type": "address"
        }
      ],
      "name": "OwnableInvalidOwner",
      "type": "error"
    },
    {
      "inputs": [
        {
          "internalType": "address",
          "name": "account",
          "type": "address"
        }
      ],
      "name": "OwnableUnauthorizedAccount",
      "type": "error"
    },
    {
      "anonymous": false,
      "inputs": [
        {
          "indexed": true,
          "internalType": "address",
          "name": "owner",
          "type": "address"
        },
        {
          "indexed": true,
          "internalType": "address",
          "name": "spender",
          "type": "address"
        },
        {
          "indexed": false,
          "internalType": "uint256",
          "name": "value",
          "type": "uint256"
        }
      ],
      "name": "Approval",
      "type": "event"
    },
    {
      "anonymous": false,
      "inputs": [
        {
          "indexed": true,
          "internalType": "address",
          "name": "previousOwner",
          "type": "address"
        },
        {
          "indexed": true,
          "internalType": "address",
          "name": "newOwner",
          "type": "address"
        }
      ],
      "name": "OwnershipTransferred",
      "type": "event"
    },
    {
      "anonymous": false,
      "inputs": [
        {
          "indexed": true,
          "internalType": "address",
          "name": "from",
          "type": "address"
        },
        {
          "indexed": true,
          "internalType": "address",
          "name": "to",
          "type": "address"
        },
        {
          "indexed": false,
          "internalType": "uint256",
          "name": "value",
          "type": "uint256"
        }
      ],
      "name": "Transfer",
      "type": "event"
    },
    {
      "inputs": [],
      "name": "CLAIM_AMOUNT",
      "outputs": [
        {
          "internalType": "uint256",
          "name": "",
          "type": "uint256"
        }
      ],
      "stateMutability": "view",
      "type": "function"
    },
    {
      "inputs": [
        {
          "internalType": "address",
          "name": "owner",
          "type": "address"
        },
        {
          "internalType": "address",
          "name": "spender",
          "type": "address"
        }
      ],
      "name": "allowance",
      "outputs": [
        {
          "internalType": "uint256",
          "name": "",
          "type": "uint256"
        }
      ],
      "stateMutability": "view",
      "type": "function"
    },
    {
      "inputs": [
        {
          "internalType": "address",
          "name": "spender",
          "type": "address"
        },
        {
          "internalType": "uint256",
          "name": "value",
          "type": "uint256"
        }
      ],
      "name": "approve",
      "outputs": [
        {
          "internalType": "bool",
          "name": "",
          "type": "bool"
        }
      ],
      "stateMutability": "nonpayable",
      "type": "function"
    },
    {
      "inputs": [
        {
          "internalType": "address",
          "name": "account",
          "type": "address"
        }
      ],
      "name": "balanceOf",
      "outputs": [
        {
          "internalType": "uint256",
          "name": "",
          "type": "uint256"
        }
      ],
      "stateMutability": "view",
      "type": "function"
    },
    {
      "inputs": [],
      "name": "claimPoints",
      "outputs": [],
      "stateMutability": "nonpayable",
      "type": "function"
    },
    {
      "inputs": [],
      "name": "decimals",
      "outputs": [
        {
          "internalType": "uint8",
          "name": "",
          "type": "uint8"
        }
      ],
      "stateMutability": "view",
      "type": "function"
    },
    {
      "inputs": [
        {
          "internalType": "address",
          "name": "",
          "type": "address"
        }
      ],
      "name": "hasClaimed",
      "outputs": [
        {
          "internalType": "bool",
          "name": "",
          "type": "bool"
        }
      ],
      "stateMutability": "view",
      "type": "function"
    },
    {
      "inputs": [
        {
          "internalType": "address",
          "name": "user",
          "type": "address"
        }
      ],
      "name": "hasUserClaimed",
      "outputs": [
        {
          "internalType": "bool",
          "name": "",
          "type": "bool"
        }
      ],
      "stateMutability": "view",
      "type": "function"
    },
    {
      "inputs": [
        {
          "internalType": "address",
          "name": "to",
          "type": "address"
        },
        {
          "internalType": "uint256",
          "name": "amount",
          "type": "uint256"
        }
      ],
      "name": "mint",
      "outputs": [],
      "stateMutability": "nonpayable",
      "type": "function"
    },
    {
      "inputs": [],
      "name": "name",
      "outputs": [
        {
          "internalType": "string",
          "name": "",
          "type": "string"
        }
      ],
      "stateMutability": "view",
      "type": "function"
    },
    {
      "inputs": [],
      "name": "owner",
      "outputs": [
        {
          "internalType": "address",
          "name": "",
          "type": "address"
        }
      ],
      "stateMutability": "view",
      "type": "function"
    },
    {
      "inputs": [],
      "name": "renounceOwnership",
      "outputs": [],
      "stateMutability": "nonpayable",
      "type": "function"
    },
    {
      "inputs": [],
      "name": "symbol",
      "outputs": [
        {
          "internalType": "string",
          "name": "",
          "type": "string"
        }
      ],
      "stateMutability": "view",
      "type": "function"
    },
    {
      "inputs": [],
      "name": "totalSupply",
      "outputs": [
        {
          "internalType": "uint256",
          "name": "",
          "type": "uint256"
        }
      ],
      "stateMutability": "view",
      "type": "function"
    },
    {
      "inputs": [
        {
          "internalType": "address",
          "name": "to",
          "type": "address"
        },
        {
          "internalType": "uint256",
          "name": "value",
          "type": "uint256"
        }
      ],
      "name": "transfer",
      "outputs": [
        {
          "internalType": "bool",
          "name": "",
          "type": "bool"
        }
      ],
      "stateMutability": "nonpayable",
      "type": "function"
    },
    {
      "inputs": [
        {
          "internalType": "address",
          "name": "from",
          "type": "address"
        },
        {
          "internalType": "address",
          "name": "to",
          "type": "address"
        },
        {
          "internalType": "uint256",
          "name": "value",
          "type": "uint256"
        }
      ],
      "name": "transferFrom",
      "outputs": [
        {
          "internalType": "bool",
          "name": "",
          "type": "bool"
        }
      ],
      "stateMutability": "nonpayable",
      "type": "function"
    },
    {
      "inputs": [
        {
          "internalType": "address",
          "name": "newOwner",
          "type": "address"
        }
      ],
      "name": "transferOwnership",
      "outputs": [],
      "stateMutability": "nonpayable",
      "type": "function"
    }
  ],
  "bytecode": "0x60806040523480156200001157600080fd5b50336040518060400160405280600e81526020016d4561737942657420506f696e747360901b8152506040518060400160405280600381526020016204542560ec1b815250816003908162000067919062000339565b50600462000076828262000339565b5050506001600160a01b038116620000a957604051631e4fbdf760e01b8152600060048201526024015b60405180910390fd5b620000b481620000d1565b50620000cb3369152d02c7e14af680000062000123565b6200042d565b600580546001600160a01b038381166001600160a01b0319831681179093556040519116919082907f8be0079c531659141344cd1fd0a4f28419497f9722a3daafe3b4186f6b6457e090600090a35050565b6001600160a01b0382166200014f5760405163ec442f0560e01b815260006004820152602401620000a0565b6200015d6000838362000161565b5050565b6001600160a01b0383166200019057806002600082825462000184919062000405565b90915550620002049050565b6001600160a01b03831660009081526020819052604090205481811015620001e55760405163391434e360e21b81526001600160a01b03851660048201526024810182905260448101839052606401620000a0565b6001600160a01b03841660009081526020819052604090209082900390555b6001600160a01b038216620002225760028054829003905562000241565b6001600160a01b03821660009081526020819052604090208054820190555b816001600160a01b0316836001600160a01b03167fddf252ad1be2c89b69c2b068fc378daa952ba7f163c4a11628f55a4df523b3ef836040516200028791815260200190565b60405180910390a3505050565b634e487b7160e01b600052604160045260246000fd5b600181811c90821680620002bf57607f821691505b602082108103620002e057634e487b7160e01b600052602260045260246000fd5b50919050565b601f8211156200033457600081815260208120601f850160051c810160208610156200030f5750805b601f850160051c820191505b8181101562000330578281556001016200031b565b5050505b505050565b81516001600160401b0381111562000355576200035562000294565b6200036d81620003668454620002aa565b84620002e6565b602080601f831160018114620003a557600084156200038c5750858301515b600019600386901b1c1916600185901b17855562000330565b600085815260208120601f198616915b82811015620003d657888601518255948401946001909101908401620003b5565b5085821015620003f55787850151600019600388901b60f8161c191681555b5050505050600190811b01905550565b808201808211156200042757634e487b7160e01b600052601160045260246000fd5b92915050565b610a51806200043d6000396000f3fe608060405234801561001057600080fd5b506004361061010b5760003560e01c806370a08231116100a257806395d89b411161007157806395d89b4114610221578063a195b69c14610229578063a9059cbb14610255578063dd62ed3e14610268578063f2fde38b146102a157600080fd5b806370a08231146101b2578063715018a6146101db57806373b2e80e146101e35780638da5cb5b1461020657600080fd5b806323b872dd116100de57806323b872dd1461016d578063270ef38514610180578063313ce5671461019057806340c10f191461019f57600080fd5b806304d092c71461011057806306fdde031461011a578063095ea7b31461013857806318160ddd1461015b575b600080fd5b6101186102b4565b005b6101226103a5565b60405161012f919061089b565b60405180910390f35b61014b610146366004610905565b610437565b604051901515815260200161012f565b6002545b60405190815260200161012f565b61014b61017b36600461092f565b610451565b61015f683635c9adc5dea0000081565b6040516012815260200161012f565b6101186101ad366004610905565b610475565b61015f6101c036600461096b565b6001600160a01b031660009081526020819052604090205490565b61011861048b565b61014b6101f136600461096b565b60066020526000908152604090205460ff1681565b6005546040516001600160a01b03909116815260200161012f565b61012261049d565b61014b61023736600461096b565b6001600160a01b031660009081526006602052604090205460ff1690565b61014b610263366004610905565b6104ac565b61015f61027636600461098d565b6001600160a01b03918216600090815260016020908152604080832093909416825291909152205490565b6101186102af36600461096b565b6104ba565b3360009081526006602052604090205460ff161561030b5760405162461bcd60e51b815260206004820152600f60248201526e105b1c9958591e4818db185a5b5959608a1b60448201526064015b60405180910390fd5b69d3c21bcecceda1000000683635c9adc5dea0000061032960025490565b61033391906109c0565b11156103765760405162461bcd60e51b815260206004820152601260248201527113585e081cdd5c1c1b1e481c995858da195960721b6044820152606401610302565b336000818152600660205260409020805460ff191660011790556103a390683635c9adc5dea000006104f8565b565b6060600380546103b4906109e1565b80601f01602080910402602001604051908101604052809291908181526020018280546103e0906109e1565b801561042d5780601f106104025761010080835404028352916020019161042d565b820191906000526020600020905b81548152906001019060200180831161041057829003601f168201915b5050505050905090565b60003361044581858561052e565b60019150505b92915050565b60003361045f858285610540565b61046a8585856105be565b506001949350505050565b61047d61061d565b61048782826104f8565b5050565b61049361061d565b6103a3600061064a565b6060600480546103b4906109e1565b6000336104458185856105be565b6104c261061d565b6001600160a01b0381166104ec57604051631e4fbdf760e01b815260006004820152602401610302565b6104f58161064a565b50565b6001600160a01b0382166105225760405163ec442f0560e01b815260006004820152602401610302565b6104876000838361069c565b61053b83838360016107c6565b505050565b6001600160a01b0383811660009081526001602090815260408083209386168352929052205460001981146105b857818110156105a957604051637dc7a0d960e11b81526001600160a01b03841660048201526024810182905260448101839052606401610302565b6105b8848484840360006107c6565b50505050565b6001600160a01b0383166105e857604051634b637e8f60e11b815260006004820152602401610302565b6001600160a01b0382166106125760405163ec442f0560e01b815260006004820152602401610302565b61053b83838361069c565b6005546001600160a01b031633146103a35760405163118cdaa760e01b8152336004820152602401610302565b600580546001600160a01b038381166001600160a01b0319831681179093556040519116919082907f8be0079c531659141344cd1fd0a4f28419497f9722a3daafe3b4186f6b6457e090600090a35050565b6001600160a01b0383166106c75780600260008282546106bc91906109c0565b909155506107399050565b6001600160a01b0383166000908152602081905260409020548181101561071a5760405163391434e360e21b81526001600160a01b03851660048201526024810182905260448101839052606401610302565b6001600160a01b03841660009081526020819052604090209082900390555b6001600160a01b03821661075557600280548290039055610774565b6001600160a01b03821660009081526020819052604090208054820190555b816001600160a01b0316836001600160a01b03167fddf252ad1be2c89b69c2b068fc378daa952ba7f163c4a11628f55a4df523b3ef836040516107b991815260200190565b60405180910390a3505050565b6001600160a01b0384166107f05760405163e602df0560e01b815260006004820152602401610302565b6001600160a01b03831661081a57604051634a1406b160e11b815260006004820152602401610302565b6001600160a01b03808516600090815260016020908152604080832093871683529290522082905580156105b857826001600160a01b0316846001600160a01b03167f8c5be1e5ebec7d5bd14f71427d1e84f3dd0314c0f7b2291e5b200ac8c7c3b9258460405161088d91815260200190565b60405180910390a350505050565b600060208083528351808285015260005b818110156108c8578581018301518582016040015282016108ac565b506000604082860101526040601f19601f8301168501019250505092915050565b80356001600160a01b038116811461090057600080fd5b919050565b6000806040838503121561091857600080fd5b610921836108e9565b946020939093013593505050565b60008060006060848603121561094457600080fd5b61094d846108e9565b925061095b602085016108e9565b9150604084013590509250925092565b60006020828403121561097d57600080fd5b610986826108e9565b9392505050565b600080604083850312156109a057600080fd5b6109a9836108e9565b91506109b7602084016108e9565b90509250929050565b8082018082111561044b57634e487b7160e01b600052601160045260246000fd5b600181811c908216806109f557607f821691505b602082108103610a1557634e487b7160e01b600052602260045260246000fd5b5091905056fea2646970667358221220238c8385c64becbd4307e9443c8d6e6fd5dbd60869df417fae56fb942d4ec8e164736f6c63430008140033",
  "linkReferences": {},
  "deployedLinkReferences": {}
}